S01800005254435F333233312D646973706C61792E73726563D8
S113000033C000004CC000004AC0000048C00000DB
S113001046C0000044C0000042C0000040C00000D0
S11300203EC000003CC000003AC0000038C00000E0
S113003036C0000034C0000032C0000030C00000F0
S11300402EC000002CC000002AC0000028C0000000
S113005026C0000024C0000022C0000020C0000010
S11300601EC000001CC0000011241FBECFEFD8E04A
S1130070DEBFCDBF17E0A0E0B1E0E4E3F0E102C0F1
S113008005900D92A03FB107D9F727E0A0EFB7E0A4
S113009001C01D92AF3FB207E1F7AAD6C9C7B0CFDE
S11300A0CF93DF931F92CDB7DEB74983DC0114965B
S11300B0ED91FC91159721E030E0AE014F5F5F4F69
S11300C088E6099591E0811101C090E0892F0F9095
S11300D0DF91CF91089530E0DC011696ED91FC910B
S11300E0179788E6099591E0811101C090E0892F66
S11300F008959DEC899F912D11249695969596953A
S1130100392F330F232F220F220F230F821B20E1BD
S1130110929F800D11240895CF92DF92EF92FF9267
S11301200F931F93CF93DF93009709F4EBC1DC0186
S11301301E96CC911E97C13009F0E6C17B018C015B
S11301406115710569F480E091E09F938F9318968F
S1130150ED91FC91199709950F900F90C2E0D7C1CA
S1130160FB018085813009F07FC080819181865CAC
S11301709740893C910568F087E191E09F938F93C4
S11301801896ED91FC91199709950F900F90C4E082
S1130190BEC1FB01828181508C3068F08BE491E018
S11301A09F938F931896ED91FC91199709950F9051
S11301B00F90C4E0ACC1FB0183818150873068F0AB
S11301C089E791E09F938F931896ED91FC9119978D
S11301D009950F900F90C4E09AC1FB01848181506E
S11301E08F3168F085EA91E09F938F931896ED9193
S11301F0FC91199709950F900F90C4E088C1FB01F9
S1130200858181508C3068F082ED91E09F938F93CB
S11302101896ED91FC91199709950F900F90C4E0F1
S113022076C1FB0186818C3368F081E092E09F9374
S11302308F931896ED91FC91199709950F900F9053
S1130240C4E065C1FB0187818C3308F49AC088E25D
S113025092E09F938F931896ED91FC9119970995CD
S11302600F900F90C4E053C181117EC0FB018081C7
S11302709181865C9740893C910568F087E191E023
S11302809F938F931896ED91FC91199709950F9070
S11302900F90C4E03CC1FB01828181508C3068F036
S11302A08BE491E09F938F931896ED91FC911997AD
S11302B009950F900F90C4E02AC1FB0183818150FE
S11302C0873068F089E791E09F938F931896ED91BA
S11302D0FC91199709950F900F90C4E018C1FB0188
S11302E0848181508F3168F085EA91E09F938F93E8
S11302F01896ED91FC91199709950F900F90C4E011
S113030006C1FB018581883168F08FE492E09F93F8
S11303108F931896ED91FC91199709950F900F9072
S1130320C4E0F5C0FB0186818C3368F081E092E083
S11303309F938F931896ED91FC91199709950F90BF
S11303400F90C4E0E4C0FB0187818C33D0F088E2D5
S113035092E09F938F931896ED91FC9119970995CC
S11303600F900F90C4E0D3C084E792E09F938F93E3
S11303701896ED91FC91199709950F900F90C4E090
S1130380C6C0F7018781B5DE482F60E0C80188DE6A
S1130390882369F080E992E09F938F93D80118969F
S11303A0ED91FC91199709950F900F90B0C0F7014A
S11303B086819FDE482F61E0C80172DE882369F0E0
S11303C08EEA92E09F938F93D8011896ED91FC9159
S11303D0199709950F900F909AC0F7018085813085
S11303E061F4858186DED70119962C91B0E22B9FAA
S11303F0900111242064822B03C0F701858179DEEA
S1130400482F62E0C8014CDE882369F08CEC92E04E
S11304109F938F93D8011896ED91FC9119970995A4
S11304200F900F9074C0F701838163DE482F63E05F
S1130430C80136DE882369F088EE92E09F938F939B
S1130440D8011896ED91FC91199709950F900F908A
S11304505EC0F70184814DDE482F64E0C80120DED0
S1130460882369F084E093E09F938F93D8011896D2
S1130470ED91FC91199709950F900F9048C0F701E1
S1130480808191816C01F6ECCF1AF7E0DF0A24E653
S1130490C216D10438F06C01AAE2CA1AA8E0DA0A3A
S11304A0D1E001C0D0E0F701828123DED795DD27BA
S11304B0D7954D2F482B65E0C801F2DD882369F0FC
S11304C080E293E09F938F93D8011896ED91FC916D
S11304D0199709950F900F901AC08C2D0ADE482F9A
S11304E066E0C801DDDD882389F089E493E09F9309
S11304F08F93D8011896ED91FC91199709950F9057
S11305000F9005C0C2E003C0C3E001C0C0E08C2F5F
S1130510DF91CF911F910F91FF90EF90DF90CF90DB
S11305200895EF92FF920F931F93CF93DF931F923F
S1130530CDB7DEB70097B9F1DC011E961C911130DE
S1130540A1F5062F7C0121E0AE014F5F5F4F6EE005
S1130550C2DD882369F08FE794E09F938F93D701DE
S11305601896ED91FC91199709950F900F9020C062
S113057049814F77002311F080E001C080E8482BC7
S113058049836EE0C7018CDD882389F08DE994E00E
S11305909F938F93D7011896ED91FC911997099524
S11305A00F900F9005C012E003C013E001C010E0EB
S11305B0812F0F90DF91CF911F910F91FF90EF90BA
S11305C00895DF92EF92FF920F931F93CF93DF93DF
S11305D01F92CDB7DEB7009709F444C0DC011E9624
S11305E01C91113009F040C0042FD62E7C0121E06B
S11305F0AE014F5F5F4F6EE06EDD882369F08FE7D9
S113060094E09F938F93D7011896ED91FC911997DD
S113061009950F900F902BC081E090E00D2C02C043
S1130620880F991F0A94E2F7809549814823802F07
S113063090E002C0880F991FDA94E2F7482B4983AF
S11306406EE0C7012DDD882389F08DE994E09F9346
S11306508F93D7011896ED91FC91199709950F90F6
S11306600F9005C012E003C013E001C010E0812F19
S11306700F90DF91CF911F910F91FF90EF90DF903A
S11306800895EF92FF920F931F93CF93DF931F92DE
S1130690CDB7DEB70097A9F1DC011E961C9111308D
S11306A091F5062F7C0121E0AE014F5F5F4F6EE0B4
S11306B012DD882369F08FE794E09F938F93D7012D
S11306C01896ED91FC91199709950F900F901EC003
S11306D049814B7F602F660F660F462B49836EE07E
S11306E0C701DEDC882389F08DE994E09F938F9322
S11306F0D7011896ED91FC91199709950F900F90D9
S113070005C012E003C013E001C010E0812F0F9078
S1130710DF91CF911F910F91FF90EF900895EF9289
S1130720FF920F931F93CF93DF931F92CDB7DEB742
S11307300097B1F1DC011E961C91113099F5062F3A
S11307407C0121E0AE014F5F5F4F6EE0C4DC882383
S113075069F08FE794E09F938F93D7011896ED91FA
S1130760FC91199709950F900F901FC049814F7BF9
S1130770B0E40B9FC0011124482B49836EE0C701EC
S11307808FDC882389F08DE994E09F938F93D701C0
S11307901896ED91FC91199709950F900F9005C04B
S11307A012E003C013E001C010E0812F0F90DF912D
S11307B0CF911F910F91FF90EF9008950F931F9386
S11307C0CF930097C1F0DC011E96CC91C130A9F4FF
S11307D0462F8C0160E164DC882389F082E195E096
S11307E09F938F93D8011896ED91FC9119970995D1
S11307F00F900F9005C0C2E003C0C3E001C0C0E089
S11308008C2FCF911F910F910895CF93DF93009771
S113081081F0FC018685813071F4E901CB01BA01D4
S11308202FE832EC45EF5DE319D380D3688380E091
S113083003C082E001C083E0DF91CF910895FF926D
S11308400F931F93CF93DF931F92CDB7DEB700971B
S113085009F4D1C0DC0118962D913C91199721150A
S1130860310509F4CCC08C01ED91FC91309769F409
S11308708DE495E09F938F93F90109950F900F9064
S11308800F2EF3E0FF2EF02DBEC0DC0112968D91E9
S11308909C911397892B69F488E695E09F938F9335
S11308A0F90109950F900F900F2EF3E0FF2EF02D14
S11308B0AAC0D80114968D919C911597892B69F43F
S11308C085E895E09F938F93F90109950F900F9018
S11308D00F2EF3E0FF2EF02D96C0D80116968D91C1
S11308E09C911797892B69F481EA95E09F938F93E4
S11308F0F90109950F900F900F2EF3E0FF2EF02DC4
S113090082C0D8011C968D919C911D97892B69F406
S11309108CEB95E09F938F93F90109950F900F90BD
S11309200F2EF3E0FF2EF02D6EC0D8011A968D9194
S11309309C911B97892B69F487ED95E09F938F9386
S1130940F90109950F900F900F2EF3E0FF2EF02D73
S11309505AC00995F82E882379F08AEF95E09F9381
S11309608F93D8011896ED91FC91199709950F90E2
S11309700F90FF24F39447C021E0AE014F5F5F4F17
S11309806FE0C801A8DB8823A9F08CEB94E09F9367
S11309908F93D8011896ED91FC9119970995D80178
S11309A01296ED91FC91139709950F900F90FF24E7
S11309B0F39429C049814F7749836FE0C80170DB04
S11309C08823A9F084E196E09F938F93D801189629
S11309D0ED91FC9119970995D8011296ED91FC912E
S11309E0139709950F900F90FF24F3940CC081E0A6
S11309F0F801868708C06894FF24F1F804C00F2E1C
S1130A00F3E0FF2EF02D8F2D0F90DF91CF911F91EA
S1130A100F91FF9008951F93CF93DF930097C1F038
S1130A20FC0116851130B1F4EC010280F381E02D54
S1130A300995882359F082E396E09F938F93E88584
S1130A40F98509950F900F90812F05C01E8603C06C
S1130A5082E001C083E0DF91CF911F910895EF926E
S1130A60FF920F931F93CF93DF931F92CDB7DEB7FF
S1130A700097B1F1DC011E961C91113099F5062FF7
S1130A807C0121E0AE014F5F5F4F6FE024DB8823E0
S1130A9069F08CEB94E09F938F93D7011896ED91B6
S1130AA0FC91199709950F900F901FC04981477FBA
S1130AB0602F660F660F660F462B49836FE0C701F0
S1130AC0EFDA882389F084E196E09F938F93D7012E
S1130AD01896ED91FC91199709950F900F9005C008
S1130AE012E003C013E001C010E0812F0F90DF91EA
S1130AF0CF911F910F91FF90EF900895CF93DF93C3
S1130B001F92CDB7DEB7E0EFF7E08FE0DF011D9273
S1130B108A95E9F789E596E09183808380E696E0FB
S1130B209383828382E696E09783868387E996E0BF
S1130B309583848387EA96E09587848788EA96E09C
S1130B40918780878FEA96E093878287CF0177DE4B
S1130B50882349F08BE796E09F938F93F9D00F9009
S1130B600F9081E098C061E080EF97E0DADC8823A1
S1130B7061F081E996E09F938F93EAD080EF97E04C
S1130B804ADF0F900F9081E086C040E060E080EF84
S1130B9097E017DD882361F081EB96E09F938F93B4
S1130BA0D7D080EF97E037DF0F900F9081E073C0CC
S1130BB040E061E080EF97E004DD882361F087ED99
S1130BC096E09F938F93C4D080EF97E024DF0F903B
S1130BD00F9081E060C060E080EF97E052DD8823F1
S1130BE061F08DEF96E09F938F93B2D080EF97E002
S1130BF012DF0F900F9081E04EC060E080EF97E02D
S1130C008EDD882361F086E197E09F938F93A0D0D7
S1130C1080EF97E000DF0F900F9081E03CC060E030
S1130C2080EF97E01CDF882361F087E397E09F93D0
S1130C308F938ED080EF97E0EEDE0F900F9081E0DF
S1130C402AC09E012F5F3F4F40E050E0BA0180EF81
S1130C5097E0DBDD882361F089E597E09F938F932C
S1130C6077D080EF97E0D7DE0F900F9081E013C02C
S1130C70698180EF97E0A2DD882361F08EE797E039
S1130C809F938F9365D080EF97E0C5DE0F900F9010
S1130C9081E001C080E00F90DF91CF910895BC0105
S1130CA080EF97E039DA91E0811101C090E0892F5B
S1130CB008951092B90088E48093B80080E0089504
S1130CC080E00895AF92BF92CF92DF92EF92FF92AD
S1130CD00F931F93CF93DF9321153105E1F0790131
S1130CE06A01B62E082F000FAA24A394A00E162F73
S1130CF0C0E0D0E0802F5BD0812F5BD08A2D57D00D
S1130D00CC0DDD1D68D088831F5FC12FCB19D0E0C7
S1130D10CE15DF0578F380E0DF91CF911F910F911D
S1130D20FF90EF90DF90CF90BF90AF9008951F9306
S1130D30CF93DF93162FEA01880F39D0812F39D052
S1130D40888137D080E0DF91CF911F910895089575
S1130D50CF93DF93CDB7DEB7DF91CF910895089598
S1130D6094EA9093BC00ECEBF0E090819923ECF7CB
S1130D709091B900987F983011F09031A1F480934C
S1130D80BB0084E88093BC00ECEBF0E08081882316
S1130D90ECF79091B900987F983139F081E0903464
S1130DA029F480E0089581E0089580E00895D8CF83
S1130DB008958093BB0084E88093BC00ECEBF0E0E2
S1130DC080818823ECF79091B900987F81E0983274
S1130DD009F480E0089584E88093BC00ECEBF0E033
S1130DE080818823ECF78091BB000895569A08957A
S1130DF0CF93DF93CDB7DEB72A970FB6F894DEBF53
S1130E000FBECDBF7BDEF2DF81E08A8792E09D8357
S1130E10198697E19E8398E39F8394E09B831886C9
S1130E208C8387EE97E09A838983CE01019637DF1E
S1130E305E9A2FEF81EE94E0215080409040E1F7DC
S1130E4000C000005E9880E090E02A960FB6F89407
S1130E50DEBF0FBECDBFDF91CF9108950CD0AEC0E1
S1130E60A6D040F09DD030F021F45F3F19F08FC040
S1130E705111D8C092C0B3D098F39923C9F3552324
S1130E80B1F3951B550BBB27AA2762177307840779
S1130E9038F09F5F5F4F220F331F441FAA1FA9F32F
S1130EA033D00E2E3AF0E0E830D091505040E69521
S1130EB0001CCAF729D0FE2F27D0660F771F881F82
S1130EC0BB1F261737074807AB07B0E809F0BB0B71
S1130ED0802DBF01FF2793585F4F2AF09E3F510595
S1130EE068F055C09FC05F3FECF3983EDCF38695F5
S1130EF077956795B795F7959F5FC9F7880F911D0B
S1130F009695879597F90895E1E0660F771F881FF6
S1130F10BB1F621773078407BA0720F0621B730BA9
S1130F20840BBA0BEE1F88F7E095089504D06894FB
S1130F30B11178C008955BD088F09F5790F0B92F15
S1130F409927B751A0F0D1F0660F771F881F991F1A
S1130F501AF0BA95C9F712C0B13081F062D0B1E08D
S1130F6008955FC0672F782F8827B85F39F0B93F9D
S1130F70CCF3869577956795B395D9F73EF490951C
S1130F808095709561957F4F8F4F9F4F089597F986
S1130F909F6780E870E060E008959FEF80EC08951B
S1130FA000240A9416161706180609060895002444
S1130FB00A9412161306140605060895092E0394BE
S1130FC0000C11F4882352F0BB0F40F4BF2B11F432
S1130FD060FF04C06F5F7F4F8F4F9F4F089557FD91
S1130FE09058440F551F59F05F3F71F04795880F93
S1130FF097FB991F61F09F3F79F08795089512162A
S113100013061406551FF2CF4695F1DF08C01616D5
S113101017061806991FF1CF869571056105089486
S11310200895E894BB2766277727CB0197F908959D
S1071030F894FFCF5E
S11310346473333233313A2074696D6520697320E3
S11310446E756C6C2E0A006473333233313A207932
S11310546561722063616E2774206265206F766512
S1131064722032313930206F72206C6573732074AE
S113107468616E20313939302E0A00647333323397
S1131084313A206D6F6E74682063616E2774206238
S113109465207A65726F206F72206F766572207492
S11310A468616E2031322E0A006473333233313A6C
S11310B4207765656B2063616E2774206265207AEE
S11310C465726F206F72206F766572207468616E2A
S11310D420372E0A006473333233313A2064617446
S11310E4652063616E2774206265207A65726F20BF
S11310F46F72206F766572207468616E2033312EAE
S11311040A006473333233313A20686F7572206392
S1131114616E2774206265206F766572207468613D
S11311246E203132206F72206C65737320312E0A65
S1131134006473333233313A206D696E75746520FB
S113114463616E2774206265206F7665722074680B
S1131154616E2035392E0A006473333233313A20F8
S11311647365636F6E642063616E27742062652007
S11311746F766572207468616E2035392E0A0064B6
S113118473333233313A20686F75722063616E278A
S113119474206265206F766572207468616E2032F3
S11311A4332E0A006473333233313A20666F726D1E
S11311B4617420697320696E76616C69642E0A0017
S11311C46473333233313A207772697465207365FA
S11311D4636F6E64206661696C65642E0A006473CF
S11311E4333233313A207772697465206D696E75D0
S11311F47465206661696C65642E0A006473333215
S113120433313A20777269746520686F7572206689
S113121461696C65642E0A006473333233313A2095
S11312247772697465207765656B206661696C659E
S1131234642E0A006473333233313A20777269744A
S1131244652064617465206661696C65642E0A00B6
S11312546473333233313A20777269746520636579
S11312646E7475727920616E64206D6F6E7468207B
S11312746661696C65642E0A006473333233313AEF
S11312842077726974652079656172206661696C7E
S113129465642E0A006473333233313A206D756CFD
S11312A47469706C652072656164206661696C653B
S11312B4642E0A006473333233313A2077726974CA
S11312C46520616C61726D31207365636F6E642097
S11312D46661696C65642E0A006473333233313A8F
S11312E420777269746520616C61726D31206D6957
S11312F46E757465206661696C65642E0A00647396
S1131304333233313A20777269746520616C6172C7
S11313146D3120686F7572206661696C65642E0A8C
S1131324006473333233313A20777269746520610F
S11313346C61726D31207765656B206661696C65DB
S1131344642E0A006473333233313A207772697439
S11313546520616C61726D32206D696E75746520EF
S11313646661696C65642E0A006473333233313AFE
S113137420777269746520616C61726D3220686FC4
S11313847572206661696C65642E0A006473333275
S113139433313A20777269746520616C61726D32FD
S11313A4207765656B206661696C65642E0A006448
S11313B473333233313A207265616420636F6E741F
S11313C4726F6C206661696C65642E0A0064733301
S11313D43233313A20777269746520636F6E7472A4
S11313E46F6C206661696C65642E0A006473333221
S11313F433313A20726561642073746174757320A7
S11314046661696C65642E0A006473333233313A5D
S113141420726561642074696D656F75742E0A00A9
S11314246473333233313A20726561642074656DB8
S11314347065726174757265206661696C65642E89
S11314440A006473333233313A2077726974652045
S11314546F6666736574206661696C65642E0A0040
S11314646473333233313A2072656164206F666683
S1131474736574206661696C65642E0A0064733351
S11314843233313A206969635F696E697420697320
S1131494206E756C6C2E0A006473333233313A2037
S11314A46969635F6465696E6974206973206E7524
S11314B46C6C2E0A006473333233313A20696963E5
S11314C45F7772697465206973206E756C6C2E0A7B
S11314D4006473333233313A206969635F7265613E
S11314E464206973206E756C6C2E0A006473333245
S11314F433313A2064656C61795F6D7320697320BC
S11315046E756C6C2E0A006473333233313A207274
S11315146563656976655F63616C6C6261636B20A6
S11315246973206E756C6C2E0A0064733332333124
S11315343A2069696320696E6974206661696C651F
S1131544642E0A006473333233313A207772697437
S11315546520737461747573206661696C65642EA7
S11315640A006473333233313A2069696320646551
S1131574696E6974206661696C65642E0A004D6144
S113158478696D20496E746567726174656420447A
S11315945333323331004D6178696D20496E74657B
S11315A46772617465640049494300647333323378
S11315B4313A20696E6974206661696C65642E0A27
S11315C4006473333233313A20736574206F736368
S11315D4696C6C61746F72206661696C65642E0A4F
S11315E4006473333233313A2073657420616C615F
S11315F4726D3120696E74657272757074206661DF
S1131604696C65642E0A006473333233313A20738F
S1131614657420616C61726D3220696E74657272D6
S1131624757074206661696C65642E0A0064733392
S11316343233313A207365742070696E20666169AF
S11316446C65642E0A006473333233313A20736553
S113165474207371756172652077617665206661A3
S1131664696C65642E0A006473333233313A20732F
S113167465742033326B687A206F757470757420C6
S11316846661696C65642E0A006473333233313ADB
S113169420636F6E7665727420746F207265676957
S11316A473746572206661696C65642E0A006473E0
S11316B4333233313A20736574206167696E67206D
S11316C46F6666736574206661696C65642E0A00CE
S11316D4414D00504D00253034642D253032642DA5
S11316E42530326420253032643A253032643A2578
S11316F43032642025642E0A00253034642D2530CC
S113170432642D2530326420257320253032643A26
S1131714253032643A253032642025642E0A0000D0
S9030000FC
